{
  "contractName": "UserBal",
  "abi": [
    {
      "constant": false,
      "inputs": [],
      "name": "kill",
      "outputs": [],
      "payable": false,
      "stateMutability": "nonpayable",
      "type": "function"
    },
    {
      "constant": true,
      "inputs": [],
      "name": "owner",
      "outputs": [
        {
          "name": "",
          "type": "address"
        }
      ],
      "payable": false,
      "stateMutability": "view",
      "type": "function"
    },
    {
      "payable": true,
      "stateMutability": "payable",
      "type": "fallback"
    },
    {
      "anonymous": false,
      "inputs": [
        {
          "indexed": false,
          "name": "_sender",
          "type": "address"
        },
        {
          "indexed": false,
          "name": "_value",
          "type": "uint256"
        },
        {
          "indexed": false,
          "name": "_note",
          "type": "string"
        }
      ],
      "name": "LogFallback",
      "type": "event"
    },
    {
      "constant": false,
      "inputs": [],
      "name": "toggleContractActive",
      "outputs": [],
      "payable": false,
      "stateMutability": "nonpayable",
      "type": "function"
    },
    {
      "constant": true,
      "inputs": [
        {
          "name": "_str",
          "type": "string"
        }
      ],
      "name": "isStringAcceptable",
      "outputs": [
        {
          "name": "",
          "type": "bool"
        }
      ],
      "payable": false,
      "stateMutability": "pure",
      "type": "function"
    },
    {
      "constant": true,
      "inputs": [
        {
          "name": "_assetSymbol",
          "type": "string"
        }
      ],
      "name": "getTokenBal",
      "outputs": [
        {
          "name": "",
          "type": "uint256"
        }
      ],
      "payable": false,
      "stateMutability": "view",
      "type": "function"
    },
    {
      "constant": true,
      "inputs": [],
      "name": "getAvailableTokens",
      "outputs": [
        {
          "name": "",
          "type": "bytes32[]"
        }
      ],
      "payable": false,
      "stateMutability": "view",
      "type": "function"
    },
    {
      "constant": true,
      "inputs": [
        {
          "name": "_assetSymbol",
          "type": "string"
        },
        {
          "name": "_withdrwalQuantity",
          "type": "uint256"
        }
      ],
      "name": "isSufficientBal",
      "outputs": [
        {
          "name": "",
          "type": "bool"
        }
      ],
      "payable": false,
      "stateMutability": "view",
      "type": "function"
    },
    {
      "constant": false,
      "inputs": [
        {
          "name": "_assetSymbol",
          "type": "string"
        },
        {
          "name": "_withdrwalQuantity",
          "type": "uint256"
        }
      ],
      "name": "useHoldings",
      "outputs": [
        {
          "name": "",
          "type": "bool"
        }
      ],
      "payable": false,
      "stateMutability": "nonpayable",
      "type": "function"
    },
    {
      "constant": false,
      "inputs": [
        {
          "name": "_assetSymbol",
          "type": "string"
        },
        {
          "name": "_quantity",
          "type": "uint256"
        }
      ],
      "name": "addOnChainHoldings",
      "outputs": [
        {
          "name": "",
          "type": "uint256"
        }
      ],
      "payable": false,
      "stateMutability": "nonpayable",
      "type": "function"
    },
    {
      "constant": false,
      "inputs": [],
      "name": "withdrawFunds",
      "outputs": [
        {
          "name": "",
          "type": "bool"
        }
      ],
      "payable": false,
      "stateMutability": "nonpayable",
      "type": "function"
    },
    {
      "constant": true,
      "inputs": [],
      "name": "checkBalance",
      "outputs": [
        {
          "name": "",
          "type": "uint256"
        }
      ],
      "payable": false,
      "stateMutability": "view",
      "type": "function"
    }
  ],
  "bytecode": "0x608060405260008060146101000a81548160ff021916908315150217905550336000806101000a81548173ffffffffffffffffffffffffffffffffffffffff021916908373ffffffffffffffffffffffffffffffffffffffff1602179055506115058061006d6000396000f3006080604052600436106100af576000357c0100000000000000000000000000000000000000000000000000000000900463ffffffff168063027a2723146101f65780631385d24c1461028157806324600fc31461029857806341c0e1b5146102c75780635c2e0a78146102de5780638da5cb5b1461035b578063c71daccb146103b2578063d9d61467146103dd578063e35568cb14610464578063edad0d51146104d0578063fb8442751461055b575b600080369050141515610150576040517f08c379a00000000000000000000000000000000000000000000000000000000081526004018080602001828103825260228152602001807f6f6f70732121212044617461206c656e6774682073686f756c64206265207a6581526020017f726f00000000000000000000000000000000000000000000000000000000000081525060400191505060405180910390fd5b7febbcb0d931874cf46cf3b0b48442af9c8a1e3eb6838e13591e2655f1eb4b56e13334604051808373ffffffffffffffffffffffffffffffffffffffff1673ffffffffffffffffffffffffffffffffffffffff168152602001828152602001806020018281038252600c8152602001807f5468616e6b20596f752121210000000000000000000000000000000000000000815250602001935050505060405180910390a1005b34801561020257600080fd5b50610267600480360381019080803590602001908201803590602001908080601f0160208091040260200160405190810160405280939291908181526020018383808284378201915050505050509192919290803590602001909291905050506105dc565b604051808215151515815260200191505060405180910390f35b34801561028d57600080fd5b506102966108c9565b005b3480156102a457600080fd5b506102ad6109b9565b604051808215151515815260200191505060405180910390f35b3480156102d357600080fd5b506102dc610aff565b005b3480156102ea57600080fd5b50610345600480360381019080803590602001908201803590602001908080601f0160208091040260200160405190810160405280939291908181526020018383808284378201915050505050509192919290505050610bfd565b6040518082815260200191505060405180910390f35b34801561036757600080fd5b50610370610d8e565b604051808273ffffffffffffffffffffffffffffffffffffffff1673ffffffffffffffffffffffffffffffffffffffff16815260200191505060405180910390f35b3480156103be57600080fd5b506103c7610db3565b6040518082815260200191505060405180910390f35b3480156103e957600080fd5b5061044e600480360381019080803590602001908201803590602001908080601f016020809104026020016040519081016040528093929190818152602001838380828437820191505050505050919291929080359060200190929190505050610dd2565b6040518082815260200191505060405180910390f35b34801561047057600080fd5b50610479611172565b6040518080602001828103825283818151815260200191508051906020019060200280838360005b838110156104bc5780820151818401526020810190506104a1565b505050509050019250505060405180910390f35b3480156104dc57600080fd5b50610541600480360381019080803590602001908201803590602001908080601f01602080910402602001604051908101604052809392919081815260200183838082843782019150505050505091929192908035906020019092919050505061120e565b604051808215151515815260200191505060405180910390f35b34801561056757600080fd5b506105c2600480360381019080803590602001908201803590602001908080601f01602080910402602001604051908101604052809392919081815260200183838082843782019150505050505091929192905050506112f2565b604051808215151515815260200191505060405180910390f35b60008033600260003373ffffffffffffffffffffffffffffffffffffffff1673ffffffffffffffffffffffffffffffffffffffff16815260200190815260200160002060000160006101000a81548173ffffffffffffffffffffffffffffffffffffffff021916908373ffffffffffffffffffffffffffffffffffffffff160217905550600260003373ffffffffffffffffffffffffffffffffffffffff1673ffffffffffffffffffffffffffffffffffffffff168152602001908152602001600020600201846040518082805190602001908083835b6020831015156106d857805182526020820191506020810190506020830392506106b3565b6001836020036101000a03801982511681845116808217855250505050505090500191505090815260200160405180910390206001015490506000610726848361141b90919063ffffffff16565b101515156107c2576040517f08c379a000000000000000000000000000000000000000000000000000000000815260040180806020018281038252602d8152602001807f52656d61696e6465722062616c616e63652073686f756c64206265206772656181526020017f746572207468616e205a65726f0000000000000000000000000000000000000081525060400191505060405180910390fd5b60408051908101604052808581526020016107e6858461141b90919063ffffffff16565b815250600260003373ffffffffffffffffffffffffffffffffffffffff1673ffffffffffffffffffffffffffffffffffffffff168152602001908152602001600020600201856040518082805190602001908083835b602083101515610861578051825260208201915060208101905060208303925061083c565b6001836020036101000a038019825116818451168082178552505050505050905001915050908152602001604051809103902060008201518160000190805190602001906108b0929190611434565b5060208201518160010155905050600191505092915050565b6000809054906101000a900473ffffffffffffffffffffffffffffffffffffffff1673ffffffffffffffffffffffffffffffffffffffff163373ffffffffffffffffffffffffffffffffffffffff1614151561098d576040517f08c379a00000000000000000000000000000000000000000000000000000000081526004018080602001828103825260178152602001807f6d73672073656e646572206973206e6f74204f776e657200000000000000000081525060200191505060405180910390fd5b600060149054906101000a900460ff1615600060146101000a81548160ff021916908315150217905550565b6000806000809054906101000a900473ffffffffffffffffffffffffffffffffffffffff1673ffffffffffffffffffffffffffffffffffffffff163373ffffffffffffffffffffffffffffffffffffffff16141515610a80576040517f08c379a00000000000000000000000000000000000000000000000000000000081526004018080602001828103825260178152602001807f6d73672073656e646572206973206e6f74204f776e657200000000000000000081525060200191505060405180910390fd5b600060149054906101000a900460ff1615610afb573073ffffffffffffffffffffffffffffffffffffffff163190503373ffffffffffffffffffffffffffffffffffffffff166108fc829081150290604051600060405180830381858888f19350505050158015610af5573d6000803e3d6000fd5b50600191505b5090565b6000809054906101000a900473ffffffffffffffffffffffffffffffffffffffff1673ffffffffffffffffffffffffffffffffffffffff163373ffffffffffffffffffffffffffffffffffffffff16141515610bc3576040517f08c379a00000000000000000000000000000000000000000000000000000000081526004018080602001828103825260208152602001807f4f6e6c79206f776e65722063616e206b696c6c2074686520636f6e747261637481525060200191505060405180910390fd5b6000809054906101000a900473ffffffffffffffffffffffffffffffffffffffff1673ffffffffffffffffffffffffffffffffffffffff16ff5b6000610c08826112f2565b1515610c175760009050610d89565b6000600260003373ffffffffffffffffffffffffffffffffffffffff1673ffffffffffffffffffffffffffffffffffffffff168152602001908152602001600020600201836040518082805190602001908083835b602083101515610c915780518252602082019150602081019050602083039250610c6c565b6001836020036101000a0380198251168184511680821785525050505050509050019150509081526020016040518091039020600101541415610cd75760009050610d89565b600260003373ffffffffffffffffffffffffffffffffffffffff1673ffffffffffffffffffffffffffffffffffffffff168152602001908152602001600020600201826040518082805190602001908083835b602083101515610d4f5780518252602082019150602081019050602083039250610d2a565b6001836020036101000a03801982511681845116808217855250505050505090500191505090815260200160405180910390206001015490505b919050565b6000809054906101000a900473ffffffffffffffffffffffffffffffffffffffff1681565b60003073ffffffffffffffffffffffffffffffffffffffff1631905090565b600033600260003373ffffffffffffffffffffffffffffffffffffffff1673ffffffffffffffffffffffffffffffffffffffff16815260200190815260200160002060000160006101000a81548173ffffffffffffffffffffffffffffffffffffffff021916908373ffffffffffffffffffffffffffffffffffffffff160217905550600260003373ffffffffffffffffffffffffffffffffffffffff1673ffffffffffffffffffffffffffffffffffffffff16815260200190815260200160002060010173__Utils_________________________________63cfb51928856040518263ffffffff167c01000000000000000000000000000000000000000000000000000000000281526004018080602001828103825283818151815260200191508051906020019080838360005b83811015610f1d578082015181840152602081019050610f02565b50505050905090810190601f168015610f4a5780820380516001836020036101000a031916815260200191505b509250505060206040518083038186803b158015610f6757600080fd5b505af4158015610f7b573d6000803e3d6000fd5b505050506040513d6020811015610f9157600080fd5b81019080805190602001909291905050509080600181540180825580915050906001820390600052602060002001600090919290919091509060001916905550604080519081016040528084815260200183815250600260003373ffffffffffffffffffffffffffffffffffffffff1673ffffffffffffffffffffffffffffffffffffffff168152602001908152602001600020600201846040518082805190602001908083835b60208310151561105e5780518252602082019150602081019050602083039250611039565b6001836020036101000a038019825116818451168082178552505050505050905001915050908152602001604051809103902060008201518160000190805190602001906110ad929190611434565b5060208201518160010155905050600260003373ffffffffffffffffffffffffffffffffffffffff1673ffffffffffffffffffffffffffffffffffffffff168152602001908152602001600020600201836040518082805190602001908083835b602083101515611133578051825260208201915060208101905060208303925061110e565b6001836020036101000a038019825116818451168082178552505050505050905001915050908152602001604051809103902060010154905092915050565b6060600260003373ffffffffffffffffffffffffffffffffffffffff1673ffffffffffffffffffffffffffffffffffffffff16815260200190815260200160002060010180548060200260200160405190810160405280929190818152602001828054801561120457602002820191906000526020600020905b815460001916815260200190600101908083116111ec575b5050505050905090565b600080600260003373ffffffffffffffffffffffffffffffffffffffff1673ffffffffffffffffffffffffffffffffffffffff168152602001908152602001600020600201846040518082805190602001908083835b6020831015156112895780518252602082019150602081019050602083039250611264565b6001836020036101000a038019825116818451168082178552505050505050905001915050908152602001604051809103902060010154905060006112d7848361141b90919063ffffffff16565b11156112e657600191506112eb565b600091505b5092915050565b6000600873__Utils_________________________________630326c06b846040518263ffffffff167c01000000000000000000000000000000000000000000000000000000000281526004018080602001828103825283818151815260200191508051906020019080838360005b8381101561137c578082015181840152602081019050611361565b50505050905090810190601f1680156113a95780820380516001836020036101000a031916815260200191505b509250505060206040518083038186803b1580156113c657600080fd5b505af41580156113da573d6000803e3d6000fd5b505050506040513d60208110156113f057600080fd5b81019080805190602001909291905050501115156114115760019050611416565b600090505b919050565b600082821115151561142957fe5b818303905092915050565b828054600181600116156101000203166002900490600052602060002090601f016020900481019282601f1061147557805160ff19168380011785556114a3565b828001600101855582156114a3579182015b828111156114a2578251825591602001919060010190611487565b5b5090506114b091906114b4565b5090565b6114d691905b808211156114d25760008160009055506001016114ba565b5090565b905600a165627a7a723058208c0bf87aa62aad7520f08a55a25c70a21c8f95fcbb06b562a0733b869b706dec0029",
  "source": "pragma solidity ^0.4.24;\n\nimport \"./Mortal.sol\";\nimport \"./Utils.sol\";\nimport \"installed_contracts/zeppelin/contracts/math/SafeMath.sol\";\n\ncontract UserBal is Mortal{\n\n    using SafeMath for uint256;\n\n    uint private constant assetSymbolMaxLen = 8;\n    bool private stopped = false;\n    mapping(address => bool) admins;\n\n    struct Asset {\n        string assetSymbol;\n        uint256 assetQuantity;\n    }\n    struct User {\n        address addr;\n        bytes32[] assetsList;\n        //Asset Symbol is map key\n        mapping(string => Asset) assetsMap;\n    }\n    //To identify user by an Ethereum address\n    mapping (address => User) userHoldings;\n\n        //To identify user by an Ethereum address\n    mapping (address => User) userLockedins;\n\n    //Events for logging\n    event LogFallback(address _sender,uint _value, string _note);\n\n    //Modifiers\n    //To restrict only to owner\n    modifier onlyOwner(){require(msg.sender == owner, \"msg sender is not Owner\"); _;}\n    //To restrict only to allocated admins by owner of the contract\n    modifier onlyAdmin(){require(admins[msg.sender] == true,\"Sender is not Admin\"); _;}\n    //To pause the contract in Emergency\n    modifier stopInEmergency {if (!stopped) _;}\n    modifier onlyInEmergency {if (stopped) _;}\n\n    //Circuit Breaker to pause the contract in case of Emergency\n    function toggleContractActive() public \n    onlyOwner {\n        stopped = !stopped;\n    }\n\n    /** @dev Fetch a particular token bal\n        * @param _str symbol\n        * @return uploadChoices constant.\n        */\n    function isStringAcceptable(string _str) \n    public\n    pure\n    returns(bool) {\n        if (Utils.utfStringLength(_str) <= assetSymbolMaxLen) {\n            return true;\n        }\n        return false;\n    }\n\n    /** @dev Fetch one particular token bal\n        * @param _assetSymbol symbol\n        * @return uploadChoices constant.\n        */\n    function getTokenBal(string _assetSymbol) public \n    view\n    returns(uint256){\n        if (!isStringAcceptable(_assetSymbol)) {\n            return 0;\n        }\n        if (userHoldings[msg.sender].assetsMap[_assetSymbol].assetQuantity == 0) {\n            return 0;\n        } \n        return userHoldings[msg.sender].assetsMap[_assetSymbol].assetQuantity;\n    }\n\n    /** @dev Fetch all token balance\n        * @return Array of struct containing asset symbol and quantity\n        */\n    \n    function getAvailableTokens() public \n    view\n    returns(bytes32[]){\n        return userHoldings[msg.sender].assetsList;\n    }\n    \n\n    /** @dev Check whether user has sufficent balance of a particulat token\n        * @return bool\n        */\n    function isSufficientBal(string _assetSymbol, uint256 _withdrwalQuantity) public \n    view\n    returns(bool){\n        uint256 bal = userHoldings[msg.sender].assetsMap[_assetSymbol].assetQuantity;\n        if (bal.sub(_withdrwalQuantity) > 0)\n            return true;\n        return false;\n    }\n\n    function useHoldings(string _assetSymbol,uint256 _withdrwalQuantity) \n    public\n    returns(bool) {\n        userHoldings[msg.sender].addr = msg.sender;\n        uint256 curBal = userHoldings[msg.sender].assetsMap[_assetSymbol].assetQuantity;\n        require(curBal.sub(_withdrwalQuantity) >= 0, \"Remainder balance should be greater than Zero\");\n        userHoldings[msg.sender].assetsMap[_assetSymbol] = Asset(_assetSymbol, curBal.sub(_withdrwalQuantity));\n        return true;\n    }\n\n    function addOnChainHoldings(string _assetSymbol, uint256 _quantity) \n    public\n    returns(uint256) {\n        userHoldings[msg.sender].addr = msg.sender;\n        userHoldings[msg.sender].assetsList.push(Utils.stringToBytes32(_assetSymbol));\n        userHoldings[msg.sender].assetsMap[_assetSymbol] = Asset(_assetSymbol, _quantity);\n        //Return current balance\n        return userHoldings[msg.sender].assetsMap[_assetSymbol].assetQuantity;\n    }\n\n    /** @dev Returns current balance in the contract\n        * Allows the owner to withdraw funds sent to the contract account when required\n        * Contract needs to be paused before owner can withdrwa funds though\n        */\n    function withdrawFunds() public \n    onlyOwner \n    onlyInEmergency\n    returns(bool){\n        uint bal = address(this).balance;\n        msg.sender.transfer(bal);\n        return true;\n    }\n\n    /** @dev Returns current balance in the contract\n        * Just in case someone sends Ether to the contract address \n        * we should be able to check how much balance are there\n        */\n    function checkBalance() \n    public \n    view\n    returns(uint) {\n        return address(this).balance;\n    }\n    /** @dev Fallback function\n        * If someone sends Ether to this contract, it will be accepted\n        */\n    function () public payable {         \n        //Secutiry measure to stop user to send any malicious content alongwith the transaction\n        require(msg.data.length == 0,\"oops!!! Data length should be zero\");         \n        emit LogFallback(msg.sender,msg.value, \"Thank You!!!\");     \n    }\n\n}",
  "sourcePath": "/Users/dbiswas/Documents/source_code/blockchain/ethsf/crypto-pal/contracts/UserBal.sol",
  "compiler": {
    "name": "solc",
    "version": "0.4.24+commit.e67f0147.Emscripten.clang"
  },
  "schemaVersion": "2.0.1",
  "updatedAt": "2018-10-07T04:37:13.058Z"
}